:100000004EC0A5C167C066C065C064C063C062C0A1
:1000100061C060C05FC05EC05DC05CC05BC05AC0F4
:1000200059C01201100100000008C016DC050001D3
:100030000102000114035000610073006B006100B5
:100040004D00490044004900140345006C006D0058
:1000500075004B0065006C006D0075000403090419
:1000600009023D0002000080320904000000010185
:10007000000009240101002B000101090401000115
:1000800001030000072401010019000624020101F8
:100090000007058102000800052501010100112467
:1000A0001FBECFE5D2E0DEBFCDBF10E0A0E6B0E0DE
:1000B000E4E0F2E102C005900D92A039B107D9F752
:1000C00020E0A0E9B0E001C01D92A53DB207E1F734
:1000D0000BD396C895CFCF93C62F2091A60024FFAF
:1000E00007C02091A70038E823272093A70003C06A
:1000F0002AE52093A600DC01E8EAF0E09C2F9E0FA1
:100100008D918193892F8E1B1816D4F36C2F88EA5A
:1001100090E019D1CC5FC093A600CF910895CF9302
:10012000DF938091B700835087FD8EC09091B4001B
:100130002091B3002D3209F085C0883009F082C0CB
:10014000CCE0D0E0C91BD109C554DF4F83EC8093CC
:100150009B008AE5809361001092900088818076F0
:1001600019F0CE0177D265C09A811092A4008981DE
:10017000811106C01092A50024EA30E082E055C04B
:10018000853019F49093B8004DC08630A9F58B8165
:10019000813041F482E290E09093B6008093B50004
:1001A00082E126C0823041F480E690E09093B60070
:1001B0008093B5008DE31CC08330C9F4911108C051
:1001C0008CE590E09093B6008093B50084E010C079
:1001D000913019F488E490E004C0923041F484E353
:1001E00090E09093B6008093B50084E101C080E078
:1001F00090E4909390001DC0883069F0893019F424
:100200009093BA000FC08A3049F08B3059F48BE4D8
:100210008093A70007C02AEB30E002C024EA30E058
:1002200081E003C024EA30E080E03093B600209300
:10023000B5009F81911104C09E81981708F4892F01
:10024000809360001092B7008091610084FF4CC0E1
:10025000809160008F3F09F447C0C82F893008F0B3
:10026000C8E08C1B8093600080919B0098E88927F0
:1002700080939B00CC2361F18091B5009091B600F2
:100280002091900026FF12C0ACE9B0E02BE930E0ED
:1002900020953095280F391F4C2F4A0FF901EA0F8E
:1002A000FB1FE491ED934A13F9CF09C0ECE9F0E0AC
:1002B000DC012C2F2E0F3D9131932E13FCCF019694
:1002C0002FEF2C0F820F911D9093B6008093B500F5
:1002D0006C2F8CE990E037D0CC5FCC3019F08FEFE9
:1002E00080936000C093610084E199B3937031F40E
:1002F0008150D9F71092B8001092B200DF91CF91DF
:10030000089585B7826085BF8BB780648BBF8BE40F
:100310008093A7008AE58093A6000895A82FB92F9F
:1003200080E090E041E050EA609530E009C02D9116
:1003300082279795879510F084279527305EC8F31C
:100340006F5FA8F30895EADF8D939D930895CF938F
:10035000CFB7CF93DF93C395C99BE9F7C99B0BC078
:10036000C99B09C0C99B07C0C99B05C0C99B03C0E5
:10037000C99B01C08BC06F93C091B400DD27C554E9
:10038000DF4F2F9365E5C99B03C02F916F91E6CF97
:100390000F931F934F9320E040E15F9309B30370E5
:1003A00001FB27F93F9350E03BE039C013704064F4
:1003B0002F77012F5F5F1EC0406819B313702F772E
:1003C00052501FC0406409B32F770370D1F15F5FB3
:1003D00000C023C0406219B32F77137091F15F5FA3
:1003E00000C025C003701027515012F45D5F00005B
:1003F000115027952C3F19B3C8F6137001270150EF
:1004000027952C3FC8F64227499309B3037010275C
:100410004F73115027952C3FA8F64695469519B372
:10042000137079F00127015027952C3F98F66B5AED
:1004300060F3315009B3B0F600C010E41ABF0027D2
:1004400019C03B503195C31BD04010E41ABF08813E
:10045000033C09F10B34F9F02091B2001981110F1E
:100460001213EDCF4A81441F093651F10D3211F0BC
:10047000013E29F70093B9003F915F914F911F9181
:100480000F912F916F91CAB7C6FD65CFDF91CF91C4
:10049000CFBFCF9118952091B900222369F3109115
:1004A000B700112391F5343092F13093B7002093C7
:1004B000B3001091B4003BE0311B3093B40027C06F
:1004C0000091B70001300CF50AE54F7049F4309106
:1004D000610034FD1DC000936100CBE9D0E01CC079
:1004E0003091A60034FD14C00093A600C7EAD0E006
:1004F00013C0052710E000C000000BBB1AC0052781
:1005000010E0221F1DC010E021C04AE502C032EDFC
:10051000432FC4E1D0E032E01AB31360D99A0BB391
:100520001ABB53E020E865E320FF05270BBB2795A6
:1005300017951C3FF0F66695B8F7B1F720FF052731
:100540000BBB279517951C3FD0F62795179517FFDE
:10055000052700001C3F0BBBB0F629913A9519F70F
:100560000C7F1091B800110FC651D0400BBB11F099
:100570001093B20010E41ABF02601AB31C7F402F20
:100580004C7F54E05A95F1F70BBB1ABB4BBB74CFB1
:100590004F925F926F927F92AF92BF92CF92DF9213
:1005A000EF92FF920F931F93CF93DF93CDB7DEB7F8
:1005B00028970FB6F894DEBF0FBECDBF29013A01D0
:1005C000ED82FE820F831887CED269837A838B8374
:1005D0009C83A6019501698D7A8D8B8D9C8DC3D2EC
:1005E0009B01AC0169817A818B819C8148D46983AC
:1005F0007A838B839C83A3019201C801B701B3D294
:100600009B01AC0169817A818B819C8111D3A60108
:100610009501AAD228960FB6F894DEBF0FBECDBFC3
:10062000DF91CF911F910F91FF90EF90DF90CF90CE
:10063000BF90AF907F906F905F904F90089597B16B
:100640008770987F892B87B9369A3699FECF84B107
:1006500095B1089580E00895FC01808181708083C8
:100660009181662321F0992331F0915003C09A3093
:1006700010F49F5F91839181911106C010828823AD
:1006800069F084E0808308959A3040F0882311F067
:1006900081E001C083E080838AE081830895EF9246
:1006A000FF920F93CF93DF9300D01F92CDB7DEB7A9
:1006B0007C0184E090E02B834A8369834BD4FC0166
:1006C000D7018D939C93698160834A8141832B81FB
:1006D0002283038384E00F900F900F90DF91CF91DE
:1006E0000F91FF90EF900895CF93DF9300D000D04B
:1006F00000D0CDB7DEB70AE610E0E12CF12CCC2417
:10070000C394D12C2AB3C601F801008002C0880F1F
:10071000991F0A94E2F7809582238ABBC701885FFC
:100720009F4F3FD5F8016183728383839483E1995E
:10073000FECFC7018050904034D5F80165837683A1
:1007400087839087E199FECF005F1F4FF4E0EF0EA3
:10075000F11C28E0E216F104A9F6E2E6F0E081E0FF
:1007600090E04AB39C01008002C0220F331F0A941C
:10077000E2F7209524232ABB4BB39C01008002C0E2
:10078000220F331F0A94E2F7422B4BBB349620E032
:10079000EA36F20731F7D398DB9AD29A17B886E88F
:1007A00086B92EE088E190E00FB6F894A89581BD57
:1007B0000FBE21BDA6DDD19A8AEFA895EFE3FFE138
:1007C0003197F1F700C000008150B9F7D1988AEF56
:1007D000A895EFE3FFE13197F1F700C000008150E9
:1007E000B9F7789488248394912C62E3262E312CD7
:1007F0008091950090919600892BC9F08091970087
:1008000090919800892B21F48BB394E089278BBBBE
:100810008091970090919800019660919500709159
:1008200096008DD1909398008093970007C0809197
:10083000A60084FF02C0DA9A01C0DA9869B3687032
:1008400089E990E009DF28E7A22E20E0B22E39E7FF
:10085000C32E30E0D32E4AE6E42E40E0F42EF7011A
:100860008081EDDEBC0180E090E07BD220E030ECC6
:100870004FE754E4DDD12AE037ED43E25CE374D185
:100880002B013C0120E030E040E251E4F8D26B83E0
:100890007C838D839E83A301920160E070E080E8F9
:1008A0009FE361D19B01AC016B817C818D819E8135
:1008B000BFD12AE037ED43EA5DE3E1D22B013C01F1
:1008C0002FE135E84BE65FE3F701628573858485A8
:1008D0009585D5D29B01AC01C301B20145D1F70189
:1008E0006287738784879587418052806380748094
:1008F000A301920138D120E030E04EEF52ECBFD29C
:100900006B837C838D839E83A3019201F7016581B4
:1009100076818781908527D19B01AC016B817C8199
:100920008D819E8185D120E030E04EEF52E41CD1D4
:10093000E7D18B0177FD06C0603871052CF00FE719
:1009400010E002C000E010E0F5010083F6018081B4
:100950008017B1F08091A60084FF12C036972081E5
:1009600040EB6BE0CE0101969ADE682F89819A8177
:10097000B2DB89819A8186D3F5018081F60180837B
:10098000F0E1EF0EF11C20E1A20EB11C80E1C80ED7
:10099000D11C9AE8E91690E0F90609F060CF84E6E8
:1009A000E82E80E0F82E92E6C92E90E0D92EF701CD
:1009B0008081982F9670B9F09091A60094FF1FC087
:1009C00081706FE7B3D0082FF7013197208140EB9A
:1009D0006BE0CE01019663DE682F89819A817BDB13
:1009E00089819A814FD369B3C401F601008002C0A6
:1009F000880F991F0A94E2F76823C7012DDEF4E0FF
:100A0000EF0EF11C24E0C20ED11C8CE6E81680E04B
:100A1000F80669F68091990081FF7FC0809193006C
:100A200090919400009739F484E690E090939600BA
:100A30008093950062C08130910579F540917400F2
:100A400050917500609176007091770040936B0033
:100A500050936C0060936D0070936E0088E090E09E
:100A6000A5D3E199FECF409184005091850060911B
:100A700086007091870040937B0050937C006093C8
:100A80007D0070937E008CE090E090D3E199FECFE2
:100A9000309296002092950030C0029771F54091F7
:100AA00074005091750060917600709177004093CA
:100AB0006F0050937000609371007093720080E03B
:100AC00090E074D3E199FECF40918400509185006D
:100AD000609186007091870040937F005093800062
:100AE000609381007093820084E090E05FD3E1998D
:100AF000FECF1092960010929500109298001092DE
:100B000097008091930090919400019663E070E0CB
:100B100016D09093940080939300EFE9FFE0319713
:100B2000F1F700C00000A895FADA62CE002480FD3B
:100B3000060E660F11F08695D1F7802D0895AA1B39
:100B4000BB1B51E107C0AA1FBB1FA617B70710F0B8
:100B5000A61BB70B881F991F5A95A9F780959095EA
:100B6000BC01CD0108955058BB27AA270ED04DC116
:100B70003ED130F043D120F031F49F3F11F41EF408
:100B800033C10EF4E095E7FB29C1E92F4FD180F383
:100B9000BA17620773078407950718F071F49EF57A
:100BA00067C10EF4E0950B2EBA2FA02D0B01B901F1
:100BB00090010C01CA01A0011124FF27591B99F0D3
:100BC000593F50F4503E68F11A16F040A22F232FDF
:100BD000342F4427585FF3CF469537952795A7952F
:100BE000F0405395C9F77EF41F16BA0B620B730BD6
:100BF000840BBAF09150A1F0FF0FBB1F661F771F47
:100C0000881FC2F70EC0BA0F621F731F841F48F4FB
:100C1000879577956795B795F7959E3F08F0B3CF81
:100C20009395880F08F09927EE0F9795879508956B
:100C30000CD0EBC0E3D040F0DAD030F021F45F3FCD
:100C400019F0CCC0511115C1CFC0F0D098F3992341
:100C5000C9F35523B1F3951B550BBB27AA27621780
:100C60007307840738F09F5F5F4F220F331F441FC5
:100C7000AA1FA9F333D00E2E3AF0E0E830D09150FD
:100C80005040E695001CCAF729D0FE2F27D0660FEA
:100C9000771F881FBB1F261737074807AB07B0E829
:100CA00009F0BB0B802DBF01FF2793585F4F2AF03F
:100CB0009E3F510568F092C0DCC05F3FECF3983E68
:100CC000DCF3869577956795B795F7959F5FC9F79C
:100CD000880F911D9695879597F90895E1E0660F25
:100CE000771F881FBB1F621773078407BA0720F09E
:100CF000621B730B840BBA0BEE1F88F7E095089507
:100D000004D06894B111B5C0089598D088F09F5769
:100D100090F0B92F9927B751A0F0D1F0660F771F47
:100D2000881F991F1AF0BA95C9F712C0B13081F027
:100D30009FD0B1E008959CC0672F782F8827B85FB7
:100D400039F0B93FCCF3869577956795B395D9F788
:100D50003EF490958095709561957F4F8F4F9F4F92
:100D60000895E89409C097FB3EF49095809570959E
:100D700061957F4F8F4F9F4F9923A9F0F92F96E9E7
:100D8000BB279395F695879577956795B795F1115C
:100D9000F8CFFAF4BB0F11F460FF1BC06F5F7F4FF9
:100DA0008F4F9F4F16C0882311F096E911C077230B
:100DB00021F09EE8872F762F05C0662371F096E814
:100DC000862F70E060E02AF09A95660F771F881FE3
:100DD000DAF7880F9695879597F9089597F99F67A1
:100DE00080E870E060E008959FEF80EC08950024B3
:100DF0000A941616170618060906089500240A9480
:100E000012161306140605060895092E0394000C05
:100E100011F4882352F0BB0F40F4BF2B11F460FF94
:100E200004C06F5F7F4F8F4F9F4F089557FD9058BD
:100E3000440F551F59F05F3F71F04795880F97FB9E
:100E4000991F61F09F3F79F0879508951216130658
:100E50001406551FF2CF4695F1DF08C01616170687
:100E60001806991FF1CF86957105610508940895BC
:100E7000E894BB2766277727CB0197F908950AD016
:100E8000C4CFB5DF28F0BADF18F0952309F0A6CF5C
:100E9000ABCFEFCFCBDFA8F39923D9F35523C9F319
:100EA000950F50E0551FAA27EE27FF27BB270024E8
:100EB0000894679520F4E20FF31FB41F0A1E220F57
:100EC000331F441FAA1F6695A9F7779530F4F30FD7
:100ED000B41F0A1E121E08F46395330F441FAA1F85
:100EE000221F769599F7879520F4B40F0A1E121EDB
:100EF000631F440FAA1F221F331F8695A9F7862F51
:100F0000712D602D11249F5750408AF0E1F0882305
:100F10004AF0EE0FFF1FBB1F661F771F881F9150FF
:100F20005040A9F79E3F510570F058CFA2CF5F3FC8
:100F3000ECF3983EDCF3869577956795B795F79532
:100F4000E7959F5FC1F7FE2B880F911D96958795BA
:100F500097F90895CF93DF938230910510F482E0E2
:100F600090E0E091D300F091D40020E030E0A0E0E8
:100F7000B0E0309739F14081518148175907B8F0F6
:100F80004817590771F482819381109729F01396BD
:100F90009C938E9312972CC09093D4008093D3008F
:100FA00027C02115310531F04217530718F0A90168
:100FB000DB0101C0EF019A01BD01DF010280F38175
:100FC000E02DD7CF21153105F9F0281B390B24303E
:100FD000310580F48A819B816115710521F0FB0147
:100FE0009383828304C09093D4008093D300FE0146
:100FF000329644C0FE01E20FF31F81939193225079
:101000003109398328833AC02091D1003091D20030
:10101000232B41F420918C0030918D003093D2002D
:101020002093D10020918A0030918B002115310549
:1010300041F42DB73EB740918E0050918F00241B94
:10104000350BE091D100F091D200E217F307A0F444
:101050002E1B3F0B2817390778F0AC014E5F5F4F0E
:101060002417350748F04E0F5F1F5093D20040936E
:10107000D1008193919302C0E0E0F0E0CF01DF91D5
:10108000CF910895CF93DF93009709F487C0FC01B7
:10109000329713821282C091D300D091D40020974E
:1010A00081F420813181280F391F8091D1009091E6
:1010B000D2008217930779F5F093D200E093D10024
:1010C0006DC0DE0120E030E0AE17BF0750F412968D
:1010D0004D915C9113979D014115510509F1DA017C
:1010E000F3CFB383A28340815181840F951F8A1768
:1010F0009B0771F48D919C911197840F951F029617
:101100009183808312968D919C9113979383828310
:101110002115310529F4F093D400E093D3003EC0AB
:10112000D9011396FC93EE9312974D915D91A40F04
:10113000B51FEA17FB0779F480819181840F951F11
:101140000296D90111969C938E9382819381139676
:101150009C938E931297E0E0F0E08A819B81009748
:1011600019F0FE01EC01F9CFCE01029628813981F8
:10117000820F931F2091D1003091D2002817390798
:1011800069F4309729F41092D4001092D30002C071
:1011900013821282D093D200C093D100DF91CF91FD
:1011A0000895A6E1B0E044E050E00AC00396272F7E
:1011B00016D014D0252F13D0242F11C0DC01CB0161
:1011C000FC01E199FECF06C0FFBBEEBBE09A319671
:1011D0000DB20D9241505040B8F70895262FE19975
:1011E000FECF9FBB8EBBE09A01970DB2021639F07D
:1011F0001CBA2DBB0FB6F894E29AE19A0FBE08957F
:04120000F894FFCF90
:10120400FF5A061000000711000004804FC3470076
:101214000000000C00000000000005804FC34700E0
:101224000000000D0000000000000000D5002000B8
:00000001FF
